{
  "_format": "hh-sol-artifact-1",
  "contractName": "Core",
  "sourceName": "contracts/Core.sol",
  "abi": [
    {
      "inputs": [],
      "stateMutability": "nonpayable",
      "type": "constructor"
    },
    {
      "inputs": [
        {
          "internalType": "address",
          "name": "sender",
          "type": "address"
        },
        {
          "internalType": "uint256",
          "name": "tokenId",
          "type": "uint256"
        },
        {
          "internalType": "address",
          "name": "owner",
          "type": "address"
        }
      ],
      "name": "ERC721IncorrectOwner",
      "type": "error"
    },
    {
      "inputs": [
        {
          "internalType": "address",
          "name": "operator",
          "type": "address"
        },
        {
          "internalType": "uint256",
          "name": "tokenId",
          "type": "uint256"
        }
      ],
      "name": "ERC721InsufficientApproval",
      "type": "error"
    },
    {
      "inputs": [
        {
          "internalType": "address",
          "name": "approver",
          "type": "address"
        }
      ],
      "name": "ERC721InvalidApprover",
      "type": "error"
    },
    {
      "inputs": [
        {
          "internalType": "address",
          "name": "operator",
          "type": "address"
        }
      ],
      "name": "ERC721InvalidOperator",
      "type": "error"
    },
    {
      "inputs": [
        {
          "internalType": "address",
          "name": "owner",
          "type": "address"
        }
      ],
      "name": "ERC721InvalidOwner",
      "type": "error"
    },
    {
      "inputs": [
        {
          "internalType": "address",
          "name": "receiver",
          "type": "address"
        }
      ],
      "name": "ERC721InvalidReceiver",
      "type": "error"
    },
    {
      "inputs": [
        {
          "internalType": "address",
          "name": "sender",
          "type": "address"
        }
      ],
      "name": "ERC721InvalidSender",
      "type": "error"
    },
    {
      "inputs": [
        {
          "internalType": "uint256",
          "name": "tokenId",
          "type": "uint256"
        }
      ],
      "name": "ERC721NonexistentToken",
      "type": "error"
    },
    {
      "inputs": [
        {
          "internalType": "uint256",
          "name": "tokenId",
          "type": "uint256"
        },
        {
          "internalType": "address",
          "name": "caller",
          "type": "address"
        }
      ],
      "name": "NotTokenOwner",
      "type": "error"
    },
    {
      "inputs": [
        {
          "internalType": "uint256",
          "name": "tokenId",
          "type": "uint256"
        },
        {
          "internalType": "address",
          "name": "caller",
          "type": "address"
        }
      ],
      "name": "NotTokenSeller",
      "type": "error"
    },
    {
      "inputs": [
        {
          "internalType": "address",
          "name": "owner",
          "type": "address"
        }
      ],
      "name": "OwnableInvalidOwner",
      "type": "error"
    },
    {
      "inputs": [
        {
          "internalType": "address",
          "name": "account",
          "type": "address"
        }
      ],
      "name": "OwnableUnauthorizedAccount",
      "type": "error"
    },
    {
      "inputs": [],
      "name": "ReentrancyGuardReentrantCall",
      "type": "error"
    },
    {
      "inputs": [
        {
          "internalType": "uint256",
          "name": "tokenId",
          "type": "uint256"
        }
      ],
      "name": "TokenNotListed",
      "type": "error"
    },
    {
      "anonymous": false,
      "inputs": [
        {
          "indexed": true,
          "internalType": "address",
          "name": "owner",
          "type": "address"
        },
        {
          "indexed": true,
          "internalType": "address",
          "name": "approved",
          "type": "address"
        },
        {
          "indexed": true,
          "internalType": "uint256",
          "name": "tokenId",
          "type": "uint256"
        }
      ],
      "name": "Approval",
      "type": "event"
    },
    {
      "anonymous": false,
      "inputs": [
        {
          "indexed": true,
          "internalType": "address",
          "name": "owner",
          "type": "address"
        },
        {
          "indexed": true,
          "internalType": "address",
          "name": "operator",
          "type": "address"
        },
        {
          "indexed": false,
          "internalType": "bool",
          "name": "approved",
          "type": "bool"
        }
      ],
      "name": "ApprovalForAll",
      "type": "event"
    },
    {
      "anonymous": false,
      "inputs": [
        {
          "indexed": false,
          "internalType": "uint256",
          "name": "_fromTokenId",
          "type": "uint256"
        },
        {
          "indexed": false,
          "internalType": "uint256",
          "name": "_toTokenId",
          "type": "uint256"
        }
      ],
      "name": "BatchMetadataUpdate",
      "type": "event"
    },
    {
      "anonymous": false,
      "inputs": [
        {
          "indexed": false,
          "internalType": "uint256",
          "name": "_tokenId",
          "type": "uint256"
        }
      ],
      "name": "MetadataUpdate",
      "type": "event"
    },
    {
      "anonymous": false,
      "inputs": [
        {
          "indexed": true,
          "internalType": "uint256",
          "name": "tokenId",
          "type": "uint256"
        },
        {
          "indexed": false,
          "internalType": "uint256",
          "name": "price",
          "type": "uint256"
        },
        {
          "indexed": true,
          "internalType": "address",
          "name": "seller",
          "type": "address"
        }
      ],
      "name": "NFTListed",
      "type": "event"
    },
    {
      "anonymous": false,
      "inputs": [
        {
          "indexed": true,
          "internalType": "uint256",
          "name": "tokenId",
          "type": "uint256"
        },
        {
          "indexed": true,
          "internalType": "address",
          "name": "creator",
          "type": "address"
        },
        {
          "indexed": false,
          "internalType": "string",
          "name": "tokenURI",
          "type": "string"
        }
      ],
      "name": "NFTMinted",
      "type": "event"
    },
    {
      "anonymous": false,
      "inputs": [
        {
          "indexed": true,
          "internalType": "uint256",
          "name": "tokenId",
          "type": "uint256"
        },
        {
          "indexed": false,
          "internalType": "uint256",
          "name": "price",
          "type": "uint256"
        },
        {
          "indexed": true,
          "internalType": "address",
          "name": "buyer",
          "type": "address"
        }
      ],
      "name": "NFTSold",
      "type": "event"
    },
    {
      "anonymous": false,
      "inputs": [
        {
          "indexed": true,
          "internalType": "uint256",
          "name": "tokenId",
          "type": "uint256"
        },
        {
          "indexed": true,
          "internalType": "address",
          "name": "seller",
          "type": "address"
        }
      ],
      "name": "NFTUnlisted",
      "type": "event"
    },
    {
      "anonymous": false,
      "inputs": [
        {
          "indexed": true,
          "internalType": "address",
          "name": "previousOwner",
          "type": "address"
        },
        {
          "indexed": true,
          "internalType": "address",
          "name": "newOwner",
          "type": "address"
        }
      ],
      "name": "OwnershipTransferred",
      "type": "event"
    },
    {
      "anonymous": false,
      "inputs": [
        {
          "indexed": true,
          "internalType": "address",
          "name": "from",
          "type": "address"
        },
        {
          "indexed": true,
          "internalType": "address",
          "name": "to",
          "type": "address"
        },
        {
          "indexed": true,
          "internalType": "uint256",
          "name": "tokenId",
          "type": "uint256"
        }
      ],
      "name": "Transfer",
      "type": "event"
    },
    {
      "inputs": [
        {
          "internalType": "address",
          "name": "to",
          "type": "address"
        },
        {
          "internalType": "uint256",
          "name": "tokenId",
          "type": "uint256"
        }
      ],
      "name": "approve",
      "outputs": [],
      "stateMutability": "nonpayable",
      "type": "function"
    },
    {
      "inputs": [
        {
          "internalType": "address",
          "name": "owner",
          "type": "address"
        }
      ],
      "name": "balanceOf",
      "outputs": [
        {
          "internalType": "uint256",
          "name": "",
          "type": "uint256"
        }
      ],
      "stateMutability": "view",
      "type": "function"
    },
    {
      "inputs": [
        {
          "internalType": "uint256",
          "name": "tokenId",
          "type": "uint256"
        }
      ],
      "name": "buyNFT",
      "outputs": [],
      "stateMutability": "payable",
      "type": "function"
    },
    {
      "inputs": [
        {
          "internalType": "uint256",
          "name": "tokenId",
          "type": "uint256"
        }
      ],
      "name": "getApproved",
      "outputs": [
        {
          "internalType": "address",
          "name": "",
          "type": "address"
        }
      ],
      "stateMutability": "view",
      "type": "function"
    },
    {
      "inputs": [
        {
          "internalType": "address",
          "name": "owner",
          "type": "address"
        },
        {
          "internalType": "address",
          "name": "operator",
          "type": "address"
        }
      ],
      "name": "isApprovedForAll",
      "outputs": [
        {
          "internalType": "bool",
          "name": "",
          "type": "bool"
        }
      ],
      "stateMutability": "view",
      "type": "function"
    },
    {
      "inputs": [
        {
          "internalType": "uint256",
          "name": "tokenId",
          "type": "uint256"
        },
        {
          "internalType": "uint256",
          "name": "price",
          "type": "uint256"
        }
      ],
      "name": "listNFT",
      "outputs": [],
      "stateMutability": "nonpayable",
      "type": "function"
    },
    {
      "inputs": [
        {
          "internalType": "uint256",
          "name": "",
          "type": "uint256"
        }
      ],
      "name": "listings",
      "outputs": [
        {
          "internalType": "uint256",
          "name": "price",
          "type": "uint256"
        },
        {
          "internalType": "address",
          "name": "seller",
          "type": "address"
        }
      ],
      "stateMutability": "view",
      "type": "function"
    },
    {
      "inputs": [
        {
          "internalType": "string",
          "name": "tokenURI",
          "type": "string"
        }
      ],
      "name": "mintNFT",
      "outputs": [
        {
          "internalType": "uint256",
          "name": "",
          "type": "uint256"
        }
      ],
      "stateMutability": "nonpayable",
      "type": "function"
    },
    {
      "inputs": [],
      "name": "name",
      "outputs": [
        {
          "internalType": "string",
          "name": "",
          "type": "string"
        }
      ],
      "stateMutability": "view",
      "type": "function"
    },
    {
      "inputs": [],
      "name": "owner",
      "outputs": [
        {
          "internalType": "address",
          "name": "",
          "type": "address"
        }
      ],
      "stateMutability": "view",
      "type": "function"
    },
    {
      "inputs": [
        {
          "internalType": "uint256",
          "name": "tokenId",
          "type": "uint256"
        }
      ],
      "name": "ownerOf",
      "outputs": [
        {
          "internalType": "address",
          "name": "",
          "type": "address"
        }
      ],
      "stateMutability": "view",
      "type": "function"
    },
    {
      "inputs": [],
      "name": "renounceOwnership",
      "outputs": [],
      "stateMutability": "nonpayable",
      "type": "function"
    },
    {
      "inputs": [
        {
          "internalType": "address",
          "name": "from",
          "type": "address"
        },
        {
          "internalType": "address",
          "name": "to",
          "type": "address"
        },
        {
          "internalType": "uint256",
          "name": "tokenId",
          "type": "uint256"
        }
      ],
      "name": "safeTransferFrom",
      "outputs": [],
      "stateMutability": "nonpayable",
      "type": "function"
    },
    {
      "inputs": [
        {
          "internalType": "address",
          "name": "from",
          "type": "address"
        },
        {
          "internalType": "address",
          "name": "to",
          "type": "address"
        },
        {
          "internalType": "uint256",
          "name": "tokenId",
          "type": "uint256"
        },
        {
          "internalType": "bytes",
          "name": "data",
          "type": "bytes"
        }
      ],
      "name": "safeTransferFrom",
      "outputs": [],
      "stateMutability": "nonpayable",
      "type": "function"
    },
    {
      "inputs": [
        {
          "internalType": "address",
          "name": "operator",
          "type": "address"
        },
        {
          "internalType": "bool",
          "name": "approved",
          "type": "bool"
        }
      ],
      "name": "setApprovalForAll",
      "outputs": [],
      "stateMutability": "nonpayable",
      "type": "function"
    },
    {
      "inputs": [
        {
          "internalType": "bytes4",
          "name": "interfaceId",
          "type": "bytes4"
        }
      ],
      "name": "supportsInterface",
      "outputs": [
        {
          "internalType": "bool",
          "name": "",
          "type": "bool"
        }
      ],
      "stateMutability": "view",
      "type": "function"
    },
    {
      "inputs": [],
      "name": "symbol",
      "outputs": [
        {
          "internalType": "string",
          "name": "",
          "type": "string"
        }
      ],
      "stateMutability": "view",
      "type": "function"
    },
    {
      "inputs": [
        {
          "internalType": "uint256",
          "name": "tokenId",
          "type": "uint256"
        }
      ],
      "name": "tokenURI",
      "outputs": [
        {
          "internalType": "string",
          "name": "",
          "type": "string"
        }
      ],
      "stateMutability": "view",
      "type": "function"
    },
    {
      "inputs": [
        {
          "internalType": "address",
          "name": "from",
          "type": "address"
        },
        {
          "internalType": "address",
          "name": "to",
          "type": "address"
        },
        {
          "internalType": "uint256",
          "name": "tokenId",
          "type": "uint256"
        }
      ],
      "name": "transferFrom",
      "outputs": [],
      "stateMutability": "nonpayable",
      "type": "function"
    },
    {
      "inputs": [
        {
          "internalType": "uint256",
          "name": "tokenId",
          "type": "uint256"
        },
        {
          "internalType": "address",
          "name": "winner",
          "type": "address"
        }
      ],
      "name": "transferNFTToWinner",
      "outputs": [],
      "stateMutability": "nonpayable",
      "type": "function"
    },
    {
      "inputs": [
        {
          "internalType": "address",
          "name": "newOwner",
          "type": "address"
        }
      ],
      "name": "transferOwnership",
      "outputs": [],
      "stateMutability": "nonpayable",
      "type": "function"
    },
    {
      "inputs": [
        {
          "internalType": "uint256",
          "name": "tokenId",
          "type": "uint256"
        }
      ],
      "name": "unlistNFT",
      "outputs": [],
      "stateMutability": "nonpayable",
      "type": "function"
    }
  ],
  "bytecode": "0x608060405234801561001057600080fd5b50336040518060400160405280600f81526020017f4d794e4654436f6c6c656374696f6e00000000000000000000000000000000008152506040518060400160405280600481526020017f4d4e465400000000000000000000000000000000000000000000000000000000815250816000908161008d9190610445565b50806001908161009d9190610445565b505050600073ffffffffffffffffffffffffffffffffffffffff168173ffffffffffffffffffffffffffffffffffffffff16036101125760006040517f1e4fbdf70000000000000000000000000000000000000000000000000000000081526004016101099190610558565b60405180910390fd5b6101218161012f60201b60201c565b506001600881905550610573565b6000600760009054906101000a900473ffffffffffffffffffffffffffffffffffffffff16905081600760006101000a81548173ffffffffffffffffffffffffffffffffffffffff021916908373ffffffffffffffffffffffffffffffffffffffff1602179055508173ffffffffffffffffffffffffffffffffffffffff168173ffffffffffffffffffffffffffffffffffffffff167f8be0079c531659141344cd1fd0a4f28419497f9722a3daafe3b4186f6b6457e060405160405180910390a35050565b600081519050919050565b7f4e487b7100000000000000000000000000000000000000000000000000000000600052604160045260246000fd5b7f4e487b7100000000000000000000000000000000000000000000000000000000600052602260045260246000fd5b6000600282049050600182168061027657607f821691505b6020821081036102895761028861022f565b5b50919050565b60008190508160005260206000209050919050565b60006020601f8301049050919050565b600082821b905092915050565b6000600883026102f17fffffffffffffffffffffffffffffffffffffffffffffffffffffffffffffffff826102b4565b6102fb86836102b4565b95508019841693508086168417925050509392505050565b6000819050919050565b6000819050919050565b600061034261033d61033884610313565b61031d565b610313565b9050919050565b6000819050919050565b61035c83610327565b61037061036882610349565b8484546102c1565b825550505050565b600090565b610385610378565b610390818484610353565b505050565b5b818110156103b4576103a960008261037d565b600181019050610396565b5050565b601f8211156103f9576103ca8161028f565b6103d3846102a4565b810160208510156103e2578190505b6103f66103ee856102a4565b830182610395565b50505b505050565b600082821c905092915050565b600061041c600019846008026103fe565b1980831691505092915050565b6000610435838361040b565b9150826002028217905092915050565b61044e826101f5565b67ffffffffffffffff81111561046757610466610200565b5b610471825461025e565b61047c8282856103b8565b600060209050601f8311600181146104af576000841561049d578287015190505b6104a78582610429565b86555061050f565b601f1984166104bd8661028f565b60005b828110156104e5578489015182556001820191506020850194506020810190506104c0565b8683101561050257848901516104fe601f89168261040b565b8355505b6001600288020188555050505b505050505050565b600073ffffffffffffffffffffffffffffffffffffffff82169050919050565b600061054282610517565b9050919050565b61055281610537565b82525050565b600060208201905061056d6000830184610549565b92915050565b6133d3806105826000396000f3fe6080604052600436106101355760003560e01c80638da5cb5b116100ab578063b88d4fde1161006f578063b88d4fde14610401578063c87b56dd1461042a578063de74e57b14610467578063e985e9c5146104a5578063f2fde38b146104e2578063fb37e8831461050b57610135565b80638da5cb5b1461033057806394383f141461035b57806395d89b4114610384578063961f0944146103af578063a22cb465146103d857610135565b80632bdfd6c9116100fd5780632bdfd6c91461023157806342842e0e1461025a57806351ed8288146102835780636352211e1461029f57806370a08231146102dc578063715018a61461031957610135565b806301ffc9a71461013a57806306fdde0314610177578063081812fc146101a2578063095ea7b3146101df57806323b872dd14610208575b600080fd5b34801561014657600080fd5b50610161600480360381019061015c9190612533565b610548565b60405161016e919061257b565b60405180910390f35b34801561018357600080fd5b5061018c6105a9565b6040516101999190612626565b60405180910390f35b3480156101ae57600080fd5b506101c960048036038101906101c4919061267e565b61063b565b6040516101d691906126ec565b60405180910390f35b3480156101eb57600080fd5b5061020660048036038101906102019190612733565b610657565b005b34801561021457600080fd5b5061022f600480360381019061022a9190612773565b61066d565b005b34801561023d57600080fd5b50610258600480360381019061025391906127c6565b61076f565b005b34801561026657600080fd5b50610281600480360381019061027c9190612773565b6107f8565b005b61029d6004803603810190610298919061267e565b610818565b005b3480156102ab57600080fd5b506102c660048036038101906102c1919061267e565b610a90565b6040516102d391906126ec565b60405180910390f35b3480156102e857600080fd5b5061030360048036038101906102fe9190612806565b610aa2565b6040516103109190612842565b60405180910390f35b34801561032557600080fd5b5061032e610b5c565b005b34801561033c57600080fd5b50610345610b70565b60405161035291906126ec565b60405180910390f35b34801561036757600080fd5b50610382600480360381019061037d919061285d565b610b9a565b005b34801561039057600080fd5b50610399610d42565b6040516103a69190612626565b60405180910390f35b3480156103bb57600080fd5b506103d660048036038101906103d1919061267e565b610dd4565b005b3480156103e457600080fd5b506103ff60048036038101906103fa91906128c9565b610fa2565b005b34801561040d57600080fd5b5061042860048036038101906104239190612a3e565b610fb8565b005b34801561043657600080fd5b50610451600480360381019061044c919061267e565b610fdd565b60405161045e9190612626565b60405180910390f35b34801561047357600080fd5b5061048e6004803603810190610489919061267e565b6110f0565b60405161049c929190612ac1565b60405180910390f35b3480156104b157600080fd5b506104cc60048036038101906104c79190612aea565b611134565b6040516104d9919061257b565b60405180910390f35b3480156104ee57600080fd5b5061050960048036038101906105049190612806565b6111c8565b005b34801561051757600080fd5b50610532600480360381019061052d9190612bcb565b61124e565b60405161053f9190612842565b60405180910390f35b6000634906490660e01b7bffffffffffffffffffffffffffffffffffffffffffffffffffffffff1916827bffffffffffffffffffffffffffffffffffffffffffffffffffffffff191614806105a257506105a1826112db565b5b9050919050565b6060600080546105b890612c43565b80601f01602080910402602001604051908101604052809291908181526020018280546105e490612c43565b80156106315780601f1061060657610100808354040283529160200191610631565b820191906000526020600020905b81548152906001019060200180831161061457829003601f168201915b5050505050905090565b6000610646826113bd565b5061065082611445565b9050919050565b6106698282610664611482565b61148a565b5050565b600073ffffffffffffffffffffffffffffffffffffffff168273ffffffffffffffffffffffffffffffffffffffff16036106df5760006040517f64a0ae920000000000000000000000000000000000000000000000000000000081526004016106d691906126ec565b60405180910390fd5b60006106f383836106ee611482565b61149c565b90508373ffffffffffffffffffffffffffffffffffffffff168173ffffffffffffffffffffffffffffffffffffffff1614610769578382826040517f64283d7b00000000000000000000000000000000000000000000000000000000815260040161076093929190612c74565b60405180910390fd5b50505050565b3373ffffffffffffffffffffffffffffffffffffffff1661078f83610a90565b73ffffffffffffffffffffffffffffffffffffffff16146107e95781336040517f6d3d18580000000000000000000000000000000000000000000000000000000081526004016107e0929190612ac1565b60405180910390fd5b6107f43382846116b6565b5050565b61081383838360405180602001604052806000815250610fb8565b505050565b610820611823565b6000600a6000838152602001908152602001600020604051806040016040529081600082015481526020016001820160009054906101000a900473ffffffffffffffffffffffffffffffffffffffff1673ffffffffffffffffffffffffffffffffffffffff1673ffffffffffffffffffffffffffffffffffffffff1681525050905060008160000151116108e9576040517f08c379a00000000000000000000000000000000000000000000000000000000081526004016108e090612cf7565b60405180910390fd5b8060000151341015610930576040517f08c379a000000000000000000000000000000000000000000000000000000000815260040161092790612d63565b60405180910390fd5b600a60008381526020019081526020016000206000808201600090556001820160006101000a81549073ffffffffffffffffffffffffffffffffffffffff021916905550506000816020015173ffffffffffffffffffffffffffffffffffffffff163460405161099f90612db4565b60006040518083038185875af1925050503d80600081146109dc576040519150601f19603f3d011682016040523d82523d6000602084013e6109e1565b606091505b5050905080610a25576040517f08c379a0000000000000000000000000000000000000000000000000000000008152600401610a1c90612e15565b60405180910390fd5b610a34826020015133856116b6565b3373ffffffffffffffffffffffffffffffffffffffff16837fd6cdeb424def8119213ca758e13fd3b5662450011213afea6eee706e1603cb8c34604051610a7b9190612842565b60405180910390a35050610a8d611869565b50565b6000610a9b826113bd565b9050919050565b60008073ffffffffffffffffffffffffffffffffffffffff168273ffffffffffffffffffffffffffffffffffffffff1603610b155760006040517f89c62b64000000000000000000000000000000000000000000000000000000008152600401610b0c91906126ec565b60405180910390fd5b600360008373ffffffffffffffffffffffffffffffffffffffff1673ffffffffffffffffffffffffffffffffffffffff168152602001908152602001600020549050919050565b610b64611873565b610b6e60006118fa565b565b6000600760009054906101000a900473ffffffffffffffffffffffffffffffffffffffff16905090565b3373ffffffffffffffffffffffffffffffffffffffff16610bba83610a90565b73ffffffffffffffffffffffffffffffffffffffff1614610c10576040517f08c379a0000000000000000000000000000000000000000000000000000000008152600401610c0790612e81565b60405180910390fd5b60008111610c53576040517f08c379a0000000000000000000000000000000000000000000000000000000008152600401610c4a90612eed565b60405180910390fd5b610c5d3083610657565b60405180604001604052808281526020013373ffffffffffffffffffffffffffffffffffffffff16815250600a60008481526020019081526020016000206000820151816000015560208201518160010160006101000a81548173ffffffffffffffffffffffffffffffffffffffff021916908373ffffffffffffffffffffffffffffffffffffffff1602179055509050503373ffffffffffffffffffffffffffffffffffffffff16827fd2ab19646d6f9fdd37206f962b4ebaab8a4a23ad87f7695e7e1736803cb8bf7483604051610d369190612842565b60405180910390a35050565b606060018054610d5190612c43565b80601f0160208091040260200160405190810160405280929190818152602001828054610d7d90612c43565b8015610dca5780601f10610d9f57610100808354040283529160200191610dca565b820191906000526020600020905b815481529060010190602001808311610dad57829003601f168201915b5050505050905090565b6000600a6000838152602001908152602001600020604051806040016040529081600082015481526020016001820160009054906101000a900473ffffffffffffffffffffffffffffffffffffffff1673ffffffffffffffffffffffffffffffffffffffff1673ffffffffffffffffffffffffffffffffffffffff168152505090506000816000015103610e9f57816040517f7896c86c000000000000000000000000000000000000000000000000000000008152600401610e969190612842565b60405180910390fd5b3373ffffffffffffffffffffffffffffffffffffffff16816020015173ffffffffffffffffffffffffffffffffffffffff1614610f155781336040517f0c12634f000000000000000000000000000000000000000000000000000000008152600401610f0c929190612ac1565b60405180910390fd5b600a60008381526020019081526020016000206000808201600090556001820160006101000a81549073ffffffffffffffffffffffffffffffffffffffff021916905550503373ffffffffffffffffffffffffffffffffffffffff16827fb765e971c123cbdac007f49987b1aac638149f995ba62034fc509604cac5f01e60405160405180910390a35050565b610fb4610fad611482565b83836119c0565b5050565b610fc384848461066d565b610fd7610fce611482565b85858585611b2f565b50505050565b6060610fe8826113bd565b50600060066000848152602001908152602001600020805461100990612c43565b80601f016020809104026020016040519081016040528092919081815260200182805461103590612c43565b80156110825780601f1061105757610100808354040283529160200191611082565b820191906000526020600020905b81548152906001019060200180831161106557829003601f168201915b505050505090506000611093611ce0565b905060008151036110a85781925050506110eb565b6000825111156110dd5780826040516020016110c5929190612f49565b604051602081830303815290604052925050506110eb565b6110e684611cf7565b925050505b919050565b600a6020528060005260406000206000915090508060000154908060010160009054906101000a900473ffffffffffffffffffffffffffffffffffffffff16905082565b6000600560008473ffffffffffffffffffffffffffffffffffffffff1673ffffffffffffffffffffffffffffffffffffffff16815260200190815260200160002060008373ffffffffffffffffffffffffffffffffffffffff1673ffffffffffffffffffffffffffffffffffffffff16815260200190815260200160002060009054906101000a900460ff16905092915050565b6111d0611873565b600073ffffffffffffffffffffffffffffffffffffffff168173ffffffffffffffffffffffffffffffffffffffff16036112425760006040517f1e4fbdf700000000000000000000000000000000000000000000000000000000815260040161123991906126ec565b60405180910390fd5b61124b816118fa565b50565b60006009600081548092919061126390612f9c565b9190505550600060095490506112793382611d60565b6112838184611e59565b3373ffffffffffffffffffffffffffffffffffffffff16817f06becd955c918828f6e985541acbf49cc842c9e9bd569fffc7698e721ef13575856040516112ca9190612626565b60405180910390a380915050919050565b60007f80ac58cd000000000000000000000000000000000000000000000000000000007bffffffffffffffffffffffffffffffffffffffffffffffffffffffff1916827bffffffffffffffffffffffffffffffffffffffffffffffffffffffff191614806113a657507f5b5e139f000000000000000000000000000000000000000000000000000000007bffffffffffffffffffffffffffffffffffffffffffffffffffffffff1916827bffffffffffffffffffffffffffffffffffffffffffffffffffffffff1916145b806113b657506113b582611eb5565b5b9050919050565b6000806113c983611f1f565b9050600073ffffffffffffffffffffffffffffffffffffffff168173ffffffffffffffffffffffffffffffffffffffff160361143c57826040517f7e2732890000000000000000000000000000000000000000000000000000000081526004016114339190612842565b60405180910390fd5b80915050919050565b60006004600083815260200190815260200160002060009054906101000a900473ffffffffffffffffffffffffffffffffffffffff169050919050565b600033905090565b6114978383836001611f5c565b505050565b6000806114a884611f1f565b9050600073ffffffffffffffffffffffffffffffffffffffff168373ffffffffffffffffffffffffffffffffffffffff16146114ea576114e9818486612121565b5b600073ffffffffffffffffffffffffffffffffffffffff168173ffffffffffffffffffffffffffffffffffffffff161461157b5761152c600085600080611f5c565b6001600360008373ffffffffffffffffffffffffffffffffffffffff1673ffffffffffffffffffffffffffffffffffffffff168152602001908152602001600020600082825403925050819055505b600073ffffffffffffffffffffffffffffffffffffffff168573ffffffffffffffffffffffffffffffffffffffff16146115fe576001600360008773ffffffffffffffffffffffffffffffffffffffff1673ffffffffffffffffffffffffffffffffffffffff168152602001908152602001600020600082825401925050819055505b846002600086815260200190815260200160002060006101000a81548173ffffffffffffffffffffffffffffffffffffffff021916908373ffffffffffffffffffffffffffffffffffffffff160217905550838573ffffffffffffffffffffffffffffffffffffffff168273ffffffffffffffffffffffffffffffffffffffff167fddf252ad1be2c89b69c2b068fc378daa952ba7f163c4a11628f55a4df523b3ef60405160405180910390a4809150509392505050565b600073ffffffffffffffffffffffffffffffffffffffff168273ffffffffffffffffffffffffffffffffffffffff16036117285760006040517f64a0ae9200000000000000000000000000000000000000000000000000000000815260040161171f91906126ec565b60405180910390fd5b60006117368383600061149c565b9050600073ffffffffffffffffffffffffffffffffffffffff168173ffffffffffffffffffffffffffffffffffffffff16036117a957816040517f7e2732890000000000000000000000000000000000000000000000000000000081526004016117a09190612842565b60405180910390fd5b8373ffffffffffffffffffffffffffffffffffffffff168173ffffffffffffffffffffffffffffffffffffffff161461181d578382826040517f64283d7b00000000000000000000000000000000000000000000000000000000815260040161181493929190612c74565b60405180910390fd5b50505050565b60026008540361185f576040517f3ee5aeb500000000000000000000000000000000000000000000000000000000815260040160405180910390fd5b6002600881905550565b6001600881905550565b61187b611482565b73ffffffffffffffffffffffffffffffffffffffff16611899610b70565b73ffffffffffffffffffffffffffffffffffffffff16146118f8576118bc611482565b6040517f118cdaa70000000000000000000000000000000000000000000000000000000081526004016118ef91906126ec565b60405180910390fd5b565b6000600760009054906101000a900473ffffffffffffffffffffffffffffffffffffffff16905081600760006101000a81548173ffffffffffffffffffffffffffffffffffffffff021916908373ffffffffffffffffffffffffffffffffffffffff1602179055508173ffffffffffffffffffffffffffffffffffffffff168173ffffffffffffffffffffffffffffffffffffffff167f8be0079c531659141344cd1fd0a4f28419497f9722a3daafe3b4186f6b6457e060405160405180910390a35050565b600073ffffffffffffffffffffffffffffffffffffffff168273ffffffffffffffffffffffffffffffffffffffff1603611a3157816040517f5b08ba18000000000000000000000000000000000000000000000000000000008152600401611a2891906126ec565b60405180910390fd5b80600560008573ffffffffffffffffffffffffffffffffffffffff1673ffffffffffffffffffffffffffffffffffffffff16815260200190815260200160002060008473ffffffffffffffffffffffffffffffffffffffff1673ffffffffffffffffffffffffffffffffffffffff16815260200190815260200160002060006101000a81548160ff0219169083151502179055508173ffffffffffffffffffffffffffffffffffffffff168373ffffffffffffffffffffffffffffffffffffffff167f17307eab39ab6107e8899845ad3d59bd9653f200f220920489ca2b5937696c3183604051611b22919061257b565b60405180910390a3505050565b60008373ffffffffffffffffffffffffffffffffffffffff163b1115611cd9578273ffffffffffffffffffffffffffffffffffffffff1663150b7a02868685856040518563ffffffff1660e01b8152600401611b8e9493929190613039565b6020604051808303816000875af1925050508015611bca57506040513d601f19601f82011682018060405250810190611bc7919061309a565b60015b611c4e573d8060008114611bfa576040519150601f19603f3d011682016040523d82523d6000602084013e611bff565b606091505b506000815103611c4657836040517f64a0ae92000000000000000000000000000000000000000000000000000000008152600401611c3d91906126ec565b60405180910390fd5b805181602001fd5b63150b7a0260e01b7bffffffffffffffffffffffffffffffffffffffffffffffffffffffff1916817bffffffffffffffffffffffffffffffffffffffffffffffffffffffff191614611cd757836040517f64a0ae92000000000000000000000000000000000000000000000000000000008152600401611cce91906126ec565b60405180910390fd5b505b5050505050565b606060405180602001604052806000815250905090565b6060611d02826113bd565b506000611d0d611ce0565b90506000815111611d2d5760405180602001604052806000815250611d58565b80611d37846121e5565b604051602001611d48929190612f49565b6040516020818303038152906040525b915050919050565b600073ffffffffffffffffffffffffffffffffffffffff168273ffffffffffffffffffffffffffffffffffffffff1603611dd25760006040517f64a0ae92000000000000000000000000000000000000000000000000000000008152600401611dc991906126ec565b60405180910390fd5b6000611de08383600061149c565b9050600073ffffffffffffffffffffffffffffffffffffffff168173ffffffffffffffffffffffffffffffffffffffff1614611e545760006040517f73c6ac6e000000000000000000000000000000000000000000000000000000008152600401611e4b91906126ec565b60405180910390fd5b505050565b80600660008481526020019081526020016000209081611e799190613273565b507ff8e1a15aba9398e019f0b49df1a4fde98ee17ae345cb5f6b5e2c27f5033e8ce782604051611ea99190612842565b60405180910390a15050565b60007f01ffc9a7000000000000000000000000000000000000000000000000000000007bffffffffffffffffffffffffffffffffffffffffffffffffffffffff1916827bffffffffffffffffffffffffffffffffffffffffffffffffffffffff1916149050919050565b60006002600083815260200190815260200160002060009054906101000a900473ffffffffffffffffffffffffffffffffffffffff169050919050565b8080611f955750600073ffffffffffffffffffffffffffffffffffffffff168273ffffffffffffffffffffffffffffffffffffffff1614155b156120c9576000611fa5846113bd565b9050600073ffffffffffffffffffffffffffffffffffffffff168373ffffffffffffffffffffffffffffffffffffffff161415801561201057508273ffffffffffffffffffffffffffffffffffffffff168173ffffffffffffffffffffffffffffffffffffffff1614155b801561202357506120218184611134565b155b1561206557826040517fa9fbf51f00000000000000000000000000000000000000000000000000000000815260040161205c91906126ec565b60405180910390fd5b81156120c757838573ffffffffffffffffffffffffffffffffffffffff168273ffffffffffffffffffffffffffffffffffffffff167f8c5be1e5ebec7d5bd14f71427d1e84f3dd0314c0f7b2291e5b200ac8c7c3b92560405160405180910390a45b505b836004600085815260200190815260200160002060006101000a81548173ffffffffffffffffffffffffffffffffffffffff021916908373ffffffffffffffffffffffffffffffffffffffff16021790555050505050565b61212c8383836122b3565b6121e057600073ffffffffffffffffffffffffffffffffffffffff168373ffffffffffffffffffffffffffffffffffffffff16036121a157806040517f7e2732890000000000000000000000000000000000000000000000000000000081526004016121989190612842565b60405180910390fd5b81816040517f177e802f0000000000000000000000000000000000000000000000000000000081526004016121d7929190613345565b60405180910390fd5b505050565b6060600060016121f484612374565b01905060008167ffffffffffffffff81111561221357612212612913565b5b6040519080825280601f01601f1916602001820160405280156122455781602001600182028036833780820191505090505b509050600082602001820190505b6001156122a8578080600190039150507f3031323334353637383961626364656600000000000000000000000000000000600a86061a8153600a858161229c5761229b61336e565b5b04945060008503612253575b819350505050919050565b60008073ffffffffffffffffffffffffffffffffffffffff168373ffffffffffffffffffffffffffffffffffffffff161415801561236b57508273ffffffffffffffffffffffffffffffffffffffff168473ffffffffffffffffffffffffffffffffffffffff16148061232c575061232b8484611134565b5b8061236a57508273ffffffffffffffffffffffffffffffffffffffff1661235283611445565b73ffffffffffffffffffffffffffffffffffffffff16145b5b90509392505050565b600080600090507a184f03e93ff9f4daa797ed6e38ed64bf6a1f01000000000000000083106123d2577a184f03e93ff9f4daa797ed6e38ed64bf6a1f01000000000000000083816123c8576123c761336e565b5b0492506040810190505b6d04ee2d6d415b85acef8100000000831061240f576d04ee2d6d415b85acef810000000083816124055761240461336e565b5b0492506020810190505b662386f26fc10000831061243e57662386f26fc1000083816124345761243361336e565b5b0492506010810190505b6305f5e1008310612467576305f5e100838161245d5761245c61336e565b5b0492506008810190505b612710831061248c5761271083816124825761248161336e565b5b0492506004810190505b606483106124af57606483816124a5576124a461336e565b5b0492506002810190505b600a83106124be576001810190505b80915050919050565b6000604051905090565b600080fd5b600080fd5b60007fffffffff0000000000000000000000000000000000000000000000000000000082169050919050565b612510816124db565b811461251b57600080fd5b50565b60008135905061252d81612507565b92915050565b600060208284031215612549576125486124d1565b5b60006125578482850161251e565b91505092915050565b60008115159050919050565b61257581612560565b82525050565b6000602082019050612590600083018461256c565b92915050565b600081519050919050565b600082825260208201905092915050565b60005b838110156125d05780820151818401526020810190506125b5565b60008484015250505050565b6000601f19601f8301169050919050565b60006125f882612596565b61260281856125a1565b93506126128185602086016125b2565b61261b816125dc565b840191505092915050565b6000602082019050818103600083015261264081846125ed565b905092915050565b6000819050919050565b61265b81612648565b811461266657600080fd5b50565b60008135905061267881612652565b92915050565b600060208284031215612694576126936124d1565b5b60006126a284828501612669565b91505092915050565b600073ffffffffffffffffffffffffffffffffffffffff82169050919050565b60006126d6826126ab565b9050919050565b6126e6816126cb565b82525050565b600060208201905061270160008301846126dd565b92915050565b612710816126cb565b811461271b57600080fd5b50565b60008135905061272d81612707565b92915050565b6000806040838503121561274a576127496124d1565b5b60006127588582860161271e565b925050602061276985828601612669565b9150509250929050565b60008060006060848603121561278c5761278b6124d1565b5b600061279a8682870161271e565b93505060206127ab8682870161271e565b92505060406127bc86828701612669565b9150509250925092565b600080604083850312156127dd576127dc6124d1565b5b60006127eb85828601612669565b92505060206127fc8582860161271e565b9150509250929050565b60006020828403121561281c5761281b6124d1565b5b600061282a8482850161271e565b91505092915050565b61283c81612648565b82525050565b60006020820190506128576000830184612833565b92915050565b60008060408385031215612874576128736124d1565b5b600061288285828601612669565b925050602061289385828601612669565b9150509250929050565b6128a681612560565b81146128b157600080fd5b50565b6000813590506128c38161289d565b92915050565b600080604083850312156128e0576128df6124d1565b5b60006128ee8582860161271e565b92505060206128ff858286016128b4565b9150509250929050565b600080fd5b600080fd5b7f4e487b7100000000000000000000000000000000000000000000000000000000600052604160045260246000fd5b61294b826125dc565b810181811067ffffffffffffffff8211171561296a57612969612913565b5b80604052505050565b600061297d6124c7565b90506129898282612942565b919050565b600067ffffffffffffffff8211156129a9576129a8612913565b5b6129b2826125dc565b9050602081019050919050565b82818337600083830152505050565b60006129e16129dc8461298e565b612973565b9050828152602081018484840111156129fd576129fc61290e565b5b612a088482856129bf565b509392505050565b600082601f830112612a2557612a24612909565b5b8135612a358482602086016129ce565b91505092915050565b60008060008060808587031215612a5857612a576124d1565b5b6000612a668782880161271e565b9450506020612a778782880161271e565b9350506040612a8887828801612669565b925050606085013567ffffffffffffffff811115612aa957612aa86124d6565b5b612ab587828801612a10565b91505092959194509250565b6000604082019050612ad66000830185612833565b612ae360208301846126dd565b9392505050565b60008060408385031215612b0157612b006124d1565b5b6000612b0f8582860161271e565b9250506020612b208582860161271e565b9150509250929050565b600067ffffffffffffffff821115612b4557612b44612913565b5b612b4e826125dc565b9050602081019050919050565b6000612b6e612b6984612b2a565b612973565b905082815260208101848484011115612b8a57612b8961290e565b5b612b958482856129bf565b509392505050565b600082601f830112612bb257612bb1612909565b5b8135612bc2848260208601612b5b565b91505092915050565b600060208284031215612be157612be06124d1565b5b600082013567ffffffffffffffff811115612bff57612bfe6124d6565b5b612c0b84828501612b9d565b91505092915050565b7f4e487b7100000000000000000000000000000000000000000000000000000000600052602260045260246000fd5b60006002820490506001821680612c5b57607f821691505b602082108103612c6e57612c6d612c14565b5b50919050565b6000606082019050612c8960008301866126dd565b612c966020830185612833565b612ca360408301846126dd565b949350505050565b7f4e4654206e6f7420666f722073616c6500000000000000000000000000000000600082015250565b6000612ce16010836125a1565b9150612cec82612cab565b602082019050919050565b60006020820190508181036000830152612d1081612cd4565b9050919050565b7f4e6f7420656e6f756768204554482073656e7400000000000000000000000000600082015250565b6000612d4d6013836125a1565b9150612d5882612d17565b602082019050919050565b60006020820190508181036000830152612d7c81612d40565b9050919050565b600081905092915050565b50565b6000612d9e600083612d83565b9150612da982612d8e565b600082019050919050565b6000612dbf82612d91565b9150819050919050565b7f5061796d656e7420746f2073656c6c6572206661696c65640000000000000000600082015250565b6000612dff6018836125a1565b9150612e0a82612dc9565b602082019050919050565b60006020820190508181036000830152612e2e81612df2565b9050919050565b7f596f7520646f6e2774206f776e2074686973204e465400000000000000000000600082015250565b6000612e6b6016836125a1565b9150612e7682612e35565b602082019050919050565b60006020820190508181036000830152612e9a81612e5e565b9050919050565b7f5072696365206d7573742062652067726561746572207468616e203000000000600082015250565b6000612ed7601c836125a1565b9150612ee282612ea1565b602082019050919050565b60006020820190508181036000830152612f0681612eca565b9050919050565b600081905092915050565b6000612f2382612596565b612f2d8185612f0d565b9350612f3d8185602086016125b2565b80840191505092915050565b6000612f558285612f18565b9150612f618284612f18565b91508190509392505050565b7f4e487b7100000000000000000000000000000000000000000000000000000000600052601160045260246000fd5b6000612fa782612648565b91507fffffffffffffffffffffffffffffffffffffffffffffffffffffffffffffffff8203612fd957612fd8612f6d565b5b600182019050919050565b600081519050919050565b600082825260208201905092915050565b600061300b82612fe4565b6130158185612fef565b93506130258185602086016125b2565b61302e816125dc565b840191505092915050565b600060808201905061304e60008301876126dd565b61305b60208301866126dd565b6130686040830185612833565b818103606083015261307a8184613000565b905095945050505050565b60008151905061309481612507565b92915050565b6000602082840312156130b0576130af6124d1565b5b60006130be84828501613085565b91505092915050565b60008190508160005260206000209050919050565b60006020601f8301049050919050565b600082821b905092915050565b6000600883026131297fffffffffffffffffffffffffffffffffffffffffffffffffffffffffffffffff826130ec565b61313386836130ec565b95508019841693508086168417925050509392505050565b6000819050919050565b600061317061316b61316684612648565b61314b565b612648565b9050919050565b6000819050919050565b61318a83613155565b61319e61319682613177565b8484546130f9565b825550505050565b600090565b6131b36131a6565b6131be818484613181565b505050565b5b818110156131e2576131d76000826131ab565b6001810190506131c4565b5050565b601f821115613227576131f8816130c7565b613201846130dc565b81016020851015613210578190505b61322461321c856130dc565b8301826131c3565b50505b505050565b600082821c905092915050565b600061324a6000198460080261322c565b1980831691505092915050565b60006132638383613239565b9150826002028217905092915050565b61327c82612596565b67ffffffffffffffff81111561329557613294612913565b5b61329f8254612c43565b6132aa8282856131e6565b600060209050601f8311600181146132dd57600084156132cb578287015190505b6132d58582613257565b86555061333d565b601f1984166132eb866130c7565b60005b82811015613313578489015182556001820191506020850194506020810190506132ee565b86831015613330578489015161332c601f891682613239565b8355505b6001600288020188555050505b505050505050565b600060408201905061335a60008301856126dd565b6133676020830184612833565b9392505050565b7f4e487b7100000000000000000000000000000000000000000000000000000000600052601260045260246000fdfea26469706673582212204430473c4cea0fee406b811c2664853982de4970c00040dd37e6c8d018ba27f364736f6c634300081c0033",
  "linkReferences": {},
  "deployedLinkReferences": {}
}